:1000000000000220BD410000E54100005510000045
:10001000E9410000EB410000ED410000000000005C
:10002000000000000000000000000000EF410000A0
:10003000F141000000000000F3410000F541000024
:10004000C9230000F74100005D260000212C0000BC
:10005000312C0000F7410000C9240000B127000046
:100060001D2A00002D2A0000F7410000F741000082
:10007000F7410000F7410000F7410000F7410000A0
:10008000F7410000810C0000F7410000F74100003B
:10009000190D0000F7410000F7410000F741000092
:1000A000F7410000F7410000F7410000F741000070
:1000B00079270000F7410000000000000000000068
:1000C000F741000089270000F74100006D2900007A
:1000D000F7410000F7410000F7410000F741000040
:1000E0009D3A000000000000000000000000000039
:1000F00000000000F741000000000000F741000090
:1001000000000000000000000000000000000000EF
:1001100000000000000000000000000000000000DF
:1001200000000000000000000000000000000000CF
:1001300000000000000000000000000000000000BF
:1001400000000000000000000000000000000000AF
:10015000000000000000000000000000000000009F
:10016000000000000000000000000000000000008F
:10017000000000000000000000000000000000007F
:10018000000000000000000000000000000000006F
:10019000000000000000000000000000000000005F
:1001A000000000000000000000000000000000004F
:1001B000000000000000000000000000000000003F
:1001C000000000000000000000000000000000002F
:1001D000000000000000000000000000000000001F
:1001E000000000000000000000000000000000000F
:1001F00000000000000000000000000000000000FF
:100200000348044B834202D0034B03B118477047A5
:100210000407002004070020000000000548064BEA
:100220001B1AD90F01EBA301491002D0034B03B1F4
:100230001847704704070020040700200000000052
:1002400010B5064C237843B9FFF7DAFF044B13B11E
:100250000448AFF300800123237010BD0407002081
:100260000000000070FB000008B5054B1BB10549FC
:100270000548AFF30080BDE80840FFF7CFBF00BFDF
:10028000000000000807002070FB0000A3F5803A82
:10029000704700BF174B002B08BF134B9D46FFF75D
:1002A000F5FF00218B460F461348144A121A04F03A
:1002B000B5F90E4B002B00D098470D4B002B00D00A
:1002C00098470020002104000D000D48002802D0AE
:1002D0000C4804F0ABFB04F0EFF92000290000F01B
:1002E000DDF803F089FF00BF0000080000000000F7
:1002F0000000000000000220040700202417002056
:100300002D4A0000A99F00001FB54FF0CC724FF49A
:100310008373CDE902230023CDE900011A46694623
:10032000094800F0D9FF014630B1084803F072FFD8
:10033000002005B05DF804FB054802F01DFD054BEB
:1003400001201870F5E700BFF0F20000F8E10000AE
:10035000F4F200002107002010B5064C23783BB1D1
:10036000054802F029FD044802F050FD00232370E7
:1003700010BD00BF21070020F4F2000038B5064B85
:100380001B7804460D460BB1FFF7E6FF29462046D1
:10039000BDE83840FFF7B8BF2107002007B50023AC
:1003A00001460093074A0848012302F017FF48F26C
:1003B0000223002818BF98420CBF0120002003B080
:1003C0005DF804FB20070020F4F2000007B50023CD
:1003D0000093D3B20A460146044802F0FFFEB0FA89
:1003E00080F0400903B05DF804FB00BFF4F20000A8
:1003F00007B58DF804108DF8052001A90222FFF73A
:10040000E5FF03B05DF804FB7FB501260446154601
:100410008DF80F1000960146334609480DF10F0282
:1004200002F0DCFE50B9064833462A46214602F067
:10043000E8FEB0FA80F0400904B070BD0020FBE790
:10044000F4F200007FB51E460123044615468DF8E0
:100450000F10009301460DF10F02084802F0BEFE96
:1004600050B90648F3B22A46214602F0CAFEB0FA55
:1004700080F0400904B070BD0020FBE7F4F20000FA
:1004800038B5054D044645F001054FF47A40A847BC
:10049000013CFAD138BD00BF00F3000030B5504830
:1004A00087B003F0B7FE20211A20FFF767FF04464C
:1004B00038B94C4803F0AEFE4FF47A70FFF7E0FF16
:1004C000FAE73D20FFF76AFF78BB3C20FFF766FFA5
:1004D00090B33C2000F0B6F870B33C21424803F0E2
:1004E00099FE00F0C9F80021404A084600F0CCF817
:1004F00000F002F900F03EF9054610BB3C4803F05D
:1005000089FE6CB100F0B8F83A4A2946284600F056
:10051000BBF8394A0121284600F0B6F800F0ECF8A3
:100520004FF47A70FFF7ACFFFAE73D2000F08AF84D
:100530000028CAD03D21D1E7304803F06BFE0024EB
:10054000D8E729212E4803F065FE00230DF10501AF
:1005500001A88DF804308DF8053000F00EF930B1A7
:100560009DF805209DF80410264803F053FE002353
:10057000ADF806300DF1060000F010F90546F0B1B7
:10058000BDF80610204803F045FEA4B100F074F851
:10059000002108461D4A00F077F81D4ABDF80630D4
:1005A000102102A803F024FF02AA0121002000F07C
:1005B0006BF800F0A1F8C820FFF762FFDAE71548F2
:1005C00003F028FE002CF6D000F056F8124A294617
:1005D000284600F059F8114A01212846E7E700BFF4
:1005E0000EE2000026E200003EE2000051E20000C0
:1005F0006EE2000081E20000DEED00005CE200003F
:1006000089E200009FE20000C4E20000D5E20000A1
:10061000E0E20000E6E20000F7E2000000E3000094
:1006200007B500238DF80430054B8DF80500022234
:10063000187801A9FFF7CAFE03B05DF804FB00BFFC
:10064000220B002038B5094B094D18704FF4806219
:100650000848002103F0E2FF002415F8010BFFF722
:10066000DFFF10B101341A2CF7D138BD220B002066
:1006700006F300002207002002484FF480620021A8
:1006800003F0CCBF220700202DE9F043184F194D8D
:10069000CE01013A4FF0000C12F8014F0CB17A284C
:1006A00001D9BDE8F08307291ED8A4F1610EA4F199
:1006B0002003BEF1190FDBB203D93A2B94BF2346B6
:1006C0002023203B03EB83033B44841903F1FF3ECB
:1006D00004EB050804331EF8019F08F8019B9E45B2
:1006E000F9D12C4484F805C00630C0B2D4E700BF6D
:1006F00020F300002207002070B5212086B0FFF70C
:100700008FFF10B9002006B070BD0020FFF788FFF2
:100710000028F7D07F20FFF783FF0028F2D02220A7
:10072000FFF77EFF0028EDD00020FFF779FF0028BB
:10073000E8D00720FFF774FF0028E3D040230B4DDB
:100740000B4E8DF804300024102229190DF10500FC
:1007500003F0E2FF3078112201A9FFF737FE0028ED
:10076000D1D01034B4F5806FEED1CCE72207002051
:10077000220B00202920FFF711BE10B502460C46BF
:100780002920C021FFF740FE30B12246C221BDE83A
:1007900010402920FFF738BE10BD0000F7B5054610
:1007A000012200212920FFF723FE10B9002003B009
:1007B000F0BD174C1E2644F001044FF47A40A047C8
:1007C000013EFAD1FF238DF8033014260DF1030208
:1007D00014212920FFF718FE0028E7D09DF80330E8
:1007E000FF2B0CD0022301AA1E212920FFF72AFE8D
:1007F0000028DBD0BDF804309B092B80D7E7052704
:100800004FF47A40A047013FFAD1013EDED1E9E73B
:10081000F0F4000010B50368292B044604D90749F9
:1008200040F2CD1000F030FC23681F2B83BF03F093
:100830001F03236002484FF0A04010BD05E30000F5
:100840000003005007B5019001A8FFF7E3FF019AEC
:1008500001239340C0F80C3503B05DF804FB07B5E5
:10086000019001A8FFF7D6FF019A01239340C0F839
:10087000083503B05DF804FB38B5054D044645F076
:1008800001054FF47A40A847013CFAD138BD00BFBA
:1008900060F50000F7B52E4F2E4E0524022517F8FF
:1008A000013B019301A8FFF7B5FF019B03F5E0733E
:1008B00040F8235001A816F8013B0193FFF7AAFF67
:1008C000019B03F5E073013C40F82350E7D14FF062
:1008D000A04340F20322C3F85427C3F84C2740F248
:1008E0000312C3F870271520C3F87827FFF7B7FF66
:1008F0001320FFF7B4FF1C20FFF7A4FF1E20FFF713
:10090000A1FF1C20FFF79EFF1E20FFF79BFF4FF467
:10091000FA70FFF7B1FF1C20FFF7A1FF1E20FFF7C1
:100920009EFF3220FFF7A8FF1C20FFF78BFF1E2041
:10093000FFF788FF4FF4FA70FFF79EFF1C20FFF7C8
:100940008EFF1E20FFF78BFFFA20FFF795FFD8E7F9
:100950006BF5000066F5000073B506460D461446BB
:1009600072B601F0FDFA01F03DF90028FBD1124802
:1009700003F050FC44F201039E420AD044F2020309
:100980009E4214D1228861680C4803F043FCFFF7B3
:1009900081FFA668304601F00DFD236800930246F2
:1009A000636801953146064803F034FCEFE72946B9
:1009B000044803F02FFCEAE748E3000061E300008D
:1009C0007CE30000A6E300002DE9F341054601F0B9
:1009D000C7FA01F007F90028FBD1294B294C9E6A80
:1009E000294BE41AE408240444F00104002D42D009
:1009F000AA692649204601F065FAEB680193AB68C5
:100A00000093D5E900232249204601F070FAEB69F2
:100A10000093D5E904231F49204601F05CFA184BE6
:100A2000DB6A990703D51C49204601F047FADFF835
:100A30007C800025012707FA05F3334206D058F8D9
:100A400025201AB11549204601F03CFA01351A2D2E
:100A5000F1D1320605D50A4B11495A6B204601F0F7
:100A600031FA330405D5064B0E499A6B204601F046
:100A700029FAFFF70FFF0C49204601F01FFACEE7D5
:100A800000ED00E0CCFB000074FB0000C0E30000C0
:100A9000D5E300000AE4000065E40000A9E40000DA
:100AA000B4E40000D4E4000032E40000F8F40000F4
:100AB00070477047704770477047704738B50E4BA6
:100AC0001B680021986803F0B9FB4FF40041002037
:100AD00001F02EF818B1094A142100F0BBF8084DB6
:100AE00000F05EFF0A2445F001054FF47A40A84764
:100AF000013CFAD138BD00BF2C000020A4E9000061
:100B000070F500007047000007B5044B0093044ADD
:100B1000402300F0E3FE03B05DF804FB790B000016
:100B2000250B002030B50F4D0FCD89B06C460FC49A
:100B300095E80F0084E80F0006222823CDE9002362
:100B400009480A4B06930022694600F06FFC18B171
:100B5000074A462100F07EF8064B00221A7009B0C1
:100B600030BD00BF84F500000000002000509D0053
:100B700000EA0000230B002038B50E480E4C0F4D44
:100B8000002323700378EB5CD2B273B1043003F01E
:100B900009F918B10A4A562100F05CF8094B1B7894
:100BA00013B12378002BFCD038BD0C3002F0A8FD27
:100BB000EFE700BF00000020240B00209C0C002069
:100BC00000EA0000230B002008B50848084A037813
:100BD000D35C33B1043003F063F8BDE80840FFF79D
:100BE000A1BF0C3002F020FDF7E700BF000000209D
:100BF0009C0C0020FFF796BF10B50848D4B20378CC
:100C0000074AD35C224623B1043003F0CBF82046D8
:100C100010BD0C3002F074FDF9E700BF00000020A9
:100C20009C0C002008B50948094A0378D35C0122CE
:100C300043B1043003F030F9002814BF4FF0FF3007
:100C4000012008BD0C3002F0C5FDF5E700000020D2
:100C50009C0C002000B583B002900091019244F2F8
:100C6000010071466A46FFF777FE03B000BD000041
:100C7000024B4FF43C6043F001031847B0F500000D
:100C8000F8B51E491E4B0025C1F84051C1F844512A
:100C9000C1F84851C1F84C51C1F80051C1F8045194
:100CA0001B6843B3D1F8044516490968641A24F057
:100CB0007F442F461A68A24209D8A41A15441A7C08
:100CC000DE691AB1D3E905201F749047A6B90E4A10
:100CD0000E4913780978994205D10133DBB2022B12
:100CE00008BF002313700A4A42F82350094B4FF4FF
:100CF0008012C3F80021F8BD3346DBE70010014045
:100D0000780B0020740B0020670B0020680B00207C
:100D10006C0B002000E100E02DE9F04FA248A34A4F
:100D200003781278A24D9A4285B03ED00133DBB2EF
:100D3000022B12BF1A46002213469E4902709E4A99
:100D40000E6852F82300331823F07F4300220B6013
:100D50002B6817461446944613B942B12B6006E03F
:100D6000196881420FD902B12B60091A19604FF03E
:100D7000010A2B68DFF8548201934FF00009BFB9D4
:100D80004FF0180B45E0401A0C44D968D3F81CE02A
:100D9000C3F800C031B1321922F07F42C3E901210A
:100DA000DF611F4673460122D6E70027BA46E0E717
:100DB0003C46FF697F4B66681A688048A368B11A91
:100DC00021F07F41814200F2CE800B440121217449
:100DD000296823600022C4E90122E261002940F071
:100DE000CA802C60CBE7531C98F802102E680BFBCE
:100DF0000282DBB2994208BF002388F800301379E1
:100E00009468022B68D0032B00F09780012B00F030
:100E1000978098F8002098F801309342E3D12B682E
:100E2000B9F1000F05D1019A9A4202D1BAF1000F2F
:100E300043D0002B41D0D3F800A0614D5D4BD5F8D5
:100E400004751C68DFF888813E1B98F8003026F096
:100E50007F4603369BB94FF48033C5F84433C5F859
:100E60000433584B4FF40032C3F880211A604FF01E
:100E70000109C5F80090FFF7FBFE88F80090B24525
:100E80002CBF5444A41924F07F44C5F84045D5F83C
:100E90000435DB1B23F07F43E41B033324F07F4442
:100EA000A3420AD9D5F80435C5F84035FFF7E0FE6E
:100EB000444B4FF40032C3F80021434B00221A7018
:100EC00005B0BDE8F08F944209D01146D269002ADE
:100ED000F9D1002323749CE732463146F7E78C4270
:100EE00014D1D6F81CC0C5F800C0BCF1000F0DD15C
:100EF000334B0120CDE9022198602E4BC3F800C08E
:100F0000314B1870FFF7B4FEDDE902211368D26996
:100F1000CA6112B111680B4413602B68B34218BF49
:100F200049F00109D5E73274F6690123002EFAD1A0
:100F3000002B3FF46EAF2E606BE700231A46F5E7F7
:100F4000217C00297FF465AFD66866601369A360D1
:100F50005369E3609369A3611B4B1B78002B18BF97
:100F60000E46666026E7921B22F07F429A4234BF0B
:100F70009B1A00232AE70A689A4213D3D21A0A60FE
:100F8000E1612EE79B1BD66911463EB132461668D9
:100F9000B342F7D8F61A166016460A462360E66191
:100FA000D461ECE60A46F2E7680B0020670B0020EC
:100FB000780B0020740B00206C0B0020FEFF7F00DC
:100FC0000010014000E100E0650B00207C0B0020D8
:100FD000660B002072B6024A136801331360704733
:100FE000880C0020034A1368013B136003B962B602
:100FF000704700BF880C0020EFF30583C3F308039C
:101000002BB9EFF31480C04300F0010070470120BA
:101010007047000008B5FFF7EFFF012803D004492F
:10102000432000F031F8BDE80840FFF7D3BF00BF10
:1010300062EA000008B5FFF7DFFF012803D004498A
:10104000512000F021F8BDE80840FFF7CBBF00BFFA
:1010500062EA00001EF0040F1CBFEFF309800AE0F3
:10106000EFF308800549064A884201D8904202D829
:101070008D464FF00000034B18470000000002208F
:1010800000E00120C909000007B5ADF8000001919A
:101090006A46002144F20200FFF75EFC03B05DF8EF
:1010A00004FB10B5034653E8000F0A4643E800244A
:1010B00094F0000FF7D110BD10B5034653E8002F90
:1010C00042EA010043E8000494F0000FF6D110BD9D
:1010D00010B5034653E8000F00EA010243E800247C
:1010E00094F0000FF6D110BD10B5034653E8002F61
:1010F00002EB010043E8000494F0000FF6D110BDAC
:1011000010B5034653E8002FA2EB010043E80004AA
:1011100094F0000FF6D110BD0121FFF7CDBF0021E3
:10112000FFF7D6BF10B50446002834D003681BB9BA
:101130001A49FF20FFF7A8FF636823B917494FF446
:101140008070FFF7A1FFA36823B9144940F2011092
:10115000FFF79AFFE36823B910494FF48170FFF756
:1011600093FF238A23B90D4940F20310FFF78CFF48
:10117000D4E9012321689B1ADBB20A60013BDBB290
:10118000FF2B226802D10020107110BD1168481C8D
:1011900010600B70F2E70E20F7E700BFB7EA00001F
:1011A00038B5044620B912494FF49270FFF76CFF2E
:1011B0000020FFF72FFF2268616813688B4215D962
:1011C000591E116013F8013C228AE56802FB0355A1
:1011D0002268A36811685B1A1179DBB2994200D2C8
:1011E00013710020FFF726FF284638BD0025F8E7D9
:1011F000B7EA000038B50C46054620B90E4940F262
:101200004710FFF741FF24B90B494FF4A470FFF7D3
:101210003BFF0020FFF7FEFE2A681368591C11608F
:10122000EA68A41A2A8AB4FBF2F41C70BDE83840BC
:101230000020FFF7FFBE00BFB7EA00001FB503782C
:101240008DF800308388ADF8043083688DF806305F
:10125000C3688DF80730036902934369054A039315
:10126000054B684653F8213052F82110984705B0D5
:101270005DF804FB8C0C0020940C002010B5036872
:10128000292B044604D9074940F2CD10FFF7FCFE94
:1012900023681F2B83BF03F01F03236002484FF016
:1012A000A04010BD05E300000003005007B5019009
:1012B00001A8FFF7E3FF019A01239340C0F8083526
:1012C00003B05DF804FB0000024B4FF4807043F064
:1012D00001031847C0F500002DE9F743154690F8C3
:1012E0000080354A42F82850344A42F828304B7B77
:1012F00006460C4683B30B684FF0A04703F5E07336
:1013000040F20C6247F823204B6803F5E0734FF07E
:10131000010947F823200868FFF7C8FF6068FFF756
:10132000C5FF236803F5E07340F20D6247F8232000
:10133000636803F5E07347F82320FFF7C5FF002734
:101340006368019301A8FFF799FF019AD0F810355F
:10135000D340DB070CD5FFB9194A002D434608BF1F
:101360002A462146301D03B0BDE8F04301F068BCB9
:101370002368019301A8FFF781FF019B09FA03F39A
:10138000C0F80C35FFF7A0FF01372068FFF78EFF8C
:10139000FFF79AFF092FD3D16368019301A8FFF7E4
:1013A0006DFF019A01239340C0F80C35FFF78CFFC5
:1013B0006068FFF77BFFCFE7940C00208C0C0020C7
:1013C0003D1200001FB503788DF80030436801938B
:1013D00083688DF80830C368054A0393054B684657
:1013E00053F8213052F82110984705B05DF804FBFE
:1013F000A00C0020A80C00201FB503788DF8003049
:101400004368019383688DF80830C368054A0393E5
:10141000054B684653F8213052F82110984705B023
:101420005DF804FBA00C0020A80C0020F0B5194BBF
:1014300090F800C0DFF86CE089B043F82C20164B20
:1014400016460A6943F82C200C464B7F0EF80C30E8
:1014500007460FCC6D460FC594E80F0085E80F00D6
:101460003B78CDF810C01EF803304BB1002E0B4A6C
:10147000694608BF3246381D02F018FB09B0F0BDBE
:10148000002E074A694608BF324607F10C0001F0FA
:10149000DFFFF3E7A80C0020A00C0020C51300001C
:1014A000F91300009C0C002010B5044618B9064939
:1014B0003120FFF7E9FDA2682AB16369216820693C
:1014C00098470023A36010BD0DEB00000EB433B5A8
:1014D000059D044618B911494220FFF7D5FD6369FF
:1014E0001BB90E494320FFF7CFFD23681BB90B49F9
:1014F0004420FFF7C9FD63681BB908494520FFF781
:10150000C3FD35B106AB01AA29462046019300F080
:1015100071F802B0BDE8304003B070470DEB000039
:10152000826830B40468551C8560A154D0E901324A
:101530009A4202D330BCFFF7B7BF30BC70470000FF
:101540002DE9F84F9846DDE90A43164682460F46D4
:101550000A464FF00109B2420FD2C14538BFC14619
:1015600013F0010B01D16CB900240125B8F1010F72
:101570001CD908F1FF387543F8E709F10109B2FBFE
:10158000F6F2E8E79B070ED5B8F1000F0CBF302547
:101590002025A145E9D2013C29465046FFF7C0FF6E
:1015A000002CF6D1E0E72025F3E77543B7FBF5F310
:1015B0009E42FAD9DFF83880B7FBF5F3504618F8A9
:1015C000031005FB1377FFF7ABFF2B46B342B5FBC8
:1015D000F6F5F1D2BBF1000F00D034B9BDE8F88FB9
:1015E00020215046013CFFF79BFF4C45F8D8F5E71A
:1015F000C6F500002DE9F74F0F469046054620B985
:10160000B54940F25220FFF73FFD6B6923B9B2495B
:101610004FF41570FFF738FD2B6823B9AE4940F23F
:101620005520FFF731FD6B6823B9AB4940F25620D6
:10163000FFF72AFD002F00F04B8117F8011B49B975
:101640002B7B002B00F04481284603B0BDE8F04F0F
:10165000FFF72ABF252940F0BD80002602E046F0B2
:1016600001061F463B4613F8011B2D29F7D03029F0
:1016700020D02B2921D02A291A4621D1D8F80020A0
:10168000111DC8F8001014681F4639782E2926D17C
:1016900001374FF0000A0A203A4612F8011BA1F167
:1016A000300CBCF1090F1CD800FB0A11A1F1300A63
:1016B0001746F1E746F00206D3E746F00406D0E706
:1016C000002412F8013CA3F130010929DDD80A21D8
:1016D00001FB04331746A3F130040132F1E74FF068
:1016E000000A7A1C01F0FB006828174602D112F8A4
:1016F000011BF7E7782909D86F290BD8632963D034
:1017000020D8252966D0582900F08C803B78002B02
:1017100093D195E770390829F8D801A252F821F041
:10172000A71800000D1700000D1700003918000061
:101730000D1700000F1800000D1700000D17000016
:1017400025180000642901D06929DFD1D8F80020CC
:10175000111DC8F80010D2F8009089EAE972A2EBD6
:10176000E9724FF0010B0A21092A37DCD34538BF53
:10177000D3462CB1B9F1000F01DB720700D5013C53
:10178000B30702D5BAF1000F03D0F00701D454BB60
:101790000024B9F1000F2EDAC9F100092D212846E5
:1017A000FFF7BEFE06F00302022A04D1BAF1000FD1
:1017B00001D124BB0024CDE9004653460A22494604
:1017C0002846FFF7BDFEA1E7D8F800301A1DC8F87B
:1017D000002019782846FFF7A3FE97E70BF1010BCD
:1017E000B2FBF1F2C0E7A345D3D220212846013C49
:1017F000FFF796FECBE77107D4D52B21CFE7A345A2
:10180000D9D230212846013CFFF78AFED1E7D8F82B
:1018100000100A1DC8F80020CDE9004653460A22F0
:101820000968CDE7D8F800100A1DC8F80020534613
:10183000CDE900461022F3E7D8F800301A1DC8F8A9
:10184000002016F00106D3F8009024D1B9F1000F62
:1018500003D0484603F014F80646B4421DD809F1F7
:10186000FF3919F8011F00293FF450AF2846FFF750
:1018700057FEF6E728460136FFF752FE19F8061024
:101880000029F7D1A642BFF441AF20212846013CF0
:10189000FFF746FEF6E70026F0E720212846013C48
:1018A000FFF73EFED9E7D8F800301A1DC8F800202F
:1018B000302128461C68FFF733FE78212846FFF7C1
:1018C0002FFE00220823CDE900322146102277E7BF
:1018D00003B0BDE8F08F00BF53EB0000F0B595B04A
:1018E0001D46164608460C4600F0FCFC1A9B0D935C
:1018F000CDE9086500252B46082205A920460A9552
:101900008DF82C500C9500F015FD079B0293069B5B
:1019100003939DF814308DF8115003F00302012A4F
:101920001DD1BDF81450059EC3F3C203C5F3831542
:101930008DF81030AA0008230EA9204600F0FAFC0A
:10194000C6F3952608AB00932A4602AB0EA9304693
:1019500000F074FB204600F0C9FC15B0F0BD022A6F
:10196000F8D1BDF81650C3F3C203C5F389158DF83D
:1019700010300827082D2E4628BF08263B46324641
:101980000EA9204600F0D6FCAD1B08AB02AA3146DA
:101990000EA8374400F0B6FB002DEBD1DAE70000CB
:1019A00008B5FFF727F90748042100F0AFFA00282F
:1019B00003DA05494820FFF767FB044B01225A71FF
:1019C00008BD00BFF8FB0000A0EB000014000020E1
:1019D000037813F0040215D003F00303012B03D0A6
:1019E000022B09D0012070470B6802880233C2F332
:1019F000831213440B60F5E70B684288023303EB54
:101A00009213F7E7104670472DE9F043434C8846A0
:101A100085B00546861C00201746FFF7FBFA2268B2
:101A2000C8F80020D4E901130B4401339B1A9E42ED
:101A300017D80022002F6DD005F00F05AD0145F03D
:101A4000050565F30F022168A3680B4003330E44BC
:101A5000002044F82320266005B0BDE8F043FFF7DE
:101A6000E9BA01212E48FFF73FFB2E48FFF754FB50
:101A70002D48FFF751FB6068D4F80880009000EA19
:101A80000800033004EB80006946FFF7A1FF009ACD
:101A9000814608EA0203B8B904EB8303901CDB68B3
:101AA0000193013202EA080204EB820203F003030D
:101AB000012BD268009025D0022B09D01B4940F29F
:101AC0008910FFF7E1FA0DE0033304EB8300DBE755
:101AD000BDF80630C3F3891303334FEA124900EB14
:101AE000930300931048FFF71AFB08B1009B636053
:101AF0000B484946FFF7F8FAD4E9012313440133B0
:101B0000226893E7BDF80430C3F383134FEA124908
:101B10000344E6E7AD0545F0060294E7B00C00206B
:101B2000CC100020C8100020C410002010EC0000D1
:101B30000B4B0C48FF2210B59A600022C3F8182402
:101B4000C3E90022C3F81424012283F8202400F002
:101B500085FB044610B9044800F004FC204610BD83
:101B6000B00C0020E4FB0000D8F5000030B50A4CB2
:101B700071B10A4B0A491B1BDA0800239A4201D1B2
:101B8000002030BD31F82350854202D00133F5E703
:101B9000034654F83300F4E774FB0000E4FB000054
:101BA00004070020094B013903EBC000032909D8C1
:101BB000DFE801F0020A040602207047007970474E
:101BC00040797047002070470420704774FB000084
:101BD000034BD3E90030C31A58425841704700BF45
:101BE000B00C00202DE9FF47FFF7F2FF002840F07E
:101BF0008B807E4DC5F81804BFF34F8F6868AC68C2
:101C000000902040033005EB80006946FFF7E0FEBE
:101C1000009B18B1D5F81824002A71D003EA0402F9
:101C20009F1C013305EB8202234005EB8303D2683E
:101C3000DB68029302F00303022B0192009776D136
:101C4000BDF806306A48C3F38918B8F1500FC14691
:101C500028BF4FF0500969F38F1309F10801ADF85F
:101C6000063000F013FB0646002800F0A98000F0C3
:101C700039FB00233046082201A900F045FB24EA85
:101C800007030133B9EB830F4FEA830047D95FFAAB
:101C900089F900283FD004EA0701C4B2A9EB040A7D
:101CA0000331A146534C05EB81015FFA8AFA082300
:101CB0004A46304600F028FB34B109F10803524689
:101CC0002146304600F020FB08F1030807EB980797
:101CD0000097D5F81834002B5ED1D5F81044002CAD
:101CE00063D1304600F002FB2046FFF793F9D5F8A8
:101CF00018340BB9009B6B600020FFF79BF94EE096
:101D00002A689A4204D86A60002004B0BDE8F087CF
:101D100003EA040076E7374904468246C7E704EA47
:101D20000701033108234A4605EB8101C9E7012B6E
:101D300046D1BDF804302E48C3F38311062928BFCD
:101D4000062161F38913023101F00F018900ADF81A
:101D5000043000F09BFA064690B300F0C3FA00236B
:101D6000082201A9304600F0CFFA0027BDF8042070
:101D7000C2F38312BB00BA4203F10803A9D9009948
:101D80004A1C21400331009205EB810104223046B8
:101D900000F0BAFA0137E9E7304600F0A7FAFFF79A
:101DA00017FF80F00100C0B2AFE7E3685B7923B1B1
:101DB000236831461B6820469847E3681C688EE715
:101DC000D5F8104454B90C4B0C480D49C01AC00842
:101DD000000440F0020000F071F8E0E723682046BC
:101DE0009B689847E3681C68ECE700BFB00C0020D4
:101DF000E4FB0000BC0C002074FB0000CCFB0000E6
:101E000067EC00002DE9F74F274E04460F461846B1
:101E1000914601A901229846D6F808A0FFF7F4FDE3
:101E2000019D0023A81C434503EB000132D1002192
:101E30001E48FFF736F94FEA144980F3100B1C4B8C
:101E40001C4A9B1AB9EBD30F04D31B494FF4D7702C
:101E5000FFF71AF96B1C03EA0A03E40006EB83039D
:101E600004F0380449EA0B4205EA0A0544F001048B
:101E7000DA60033544EA881343EA872346F82530BD
:101E800096F820341BB1FFF7ADFE0028FBD103B05C
:101E9000BDE8F08F01EA0A0106EB810159F8232021
:101EA000CA600133BFE700BFB00C0020CC10002097
:101EB000E4FB000074FB000010EC000000231A4655
:101EC000FFF7A0BF07B50123019201AAFFF79AFF10
:101ED00003B05DF804FB1FB5CDE90123069B039316
:101EE00001AA0323FFF78EFF05B05DF804FB1FB5C1
:101EF000CDE90023069B0293079B03936A460423C4
:101F0000FFF780FF05B05DF804FB000030B5134912
:101F1000D1F810440346002022464AB9DC682071FB
:101F2000D1F8104484B9C1F81034DB681A600AE0B3
:101F3000D2681579A84201D01268EEE701300A286C
:101F4000EAD14FF0FF3030BDE468DA6824681460ED
:101F5000D1F81024D2681360F5E700BFB00C002060
:101F600038B5084B0125D3F8104483F8205404B940
:101F700038BDE3685D71236820465B689847E36875
:101F80001C68F4E7B00C002010B5037A052B0C4652
:101F90000FD0437A23B1084A08492046FFF796FA42
:101FA00007492046FFF792FA2046BDE81040FFF7A8
:101FB0007BBA002AF8D0F3E77CEC000081EC00004B
:101FC000A1EC000073B5C38804460D4633B1144A32
:101FD00000921449144A2846FFF778FA217A052915
:101FE0001CD0637A4BB1A088FFF7DCFD0F4B104982
:101FF00053F820202846FFF769FA227A0D4BA08873
:1020000053F822600021FFF7B1FD0B490346324629
:10201000284602B0BDE87040FFF758BA02B070BD64
:102020007CEC00008CEC000084EC0000E4F5000087
:1020300081EC000008F60000A4EC00002DE9F0435C
:1020400085B01F460C9D002395F80C902B73064617
:102050000C46904629463846FFF7B4FFB8F1060F04
:1020600009D8DFE808F00412181F28334000314671
:102070002846FFF72BFA002229463846FFF784FF4F
:1020800085F80C9005B0BDE8F083226831462846FB
:10209000FFF71CFAEFE7D4E9002331462846FFF7A3
:1020A00015FAE8E7A3680093D4E9002331462846EF
:1020B000FFF70CFADFE7E3680193A3680093D4E924
:1020C000002331462846FFF701FAD4E7236902933B
:1020D000E3680193A3680093D4E9002331462846BE
:1020E000FFF7F4F9C7E76369039323690293E36891
:1020F0000193A3680093D4E9002331462846FFF7F3
:10210000E5F9B8E708292DE9F04780460E4617465D
:102110001C4635D8002593F80C901D7319461046BF
:10212000FFF750FFAE422DD918F805201B49204675
:10213000FFF7CCF90135082DF4D11949194D204686
:10214000FFF7C4F94FF0000A564522D918F80A30B3
:102150007E2B1CD8EA5C12F0970F14BF1A462E2271
:1021600011492046FFF7B2F90AF1010ABAF1080F46
:10217000EAD1012221463846FFF706FF84F80C9089
:10218000BDE8F08709492046FFF7A0F9D2E72E22E3
:10219000E6E707492046FFF799F9E5E7AEEC0000CE
:1021A000B8EC000059F70000BAEC0000B4EC0000F5
:1021B000B6EC00002DE9F74F99469DF830300093BA
:1021C00088469346064618B92349B620FEF75CFFB9
:1021D000F28871794A43043A4A4505D81E4901926A
:1021E000C420FEF751FF019ADBF80070B6F806A094
:1021F00007EB0901914209F1040488BFA2EB09072A
:10220000B4FBFAF5CBF800700AFB154445B9AAEB0C
:10221000040BBB4528BFBB462FB903B0BDE8F08F08
:102220003668013DF2E7009B043408EB05003444B6
:102230005A466BB12146A7EB0B0702F06DFABA457F
:102240005D443668D3464FF0000428BFBB46E3E741
:1022500001462046EFE700BF08ED0000FEF762BF31
:10226000F8B546790146721E0546002393422D6853
:1022700003D30024A64202D8F8BD0133F6E70F6865
:102280002846FEF7B7FF01343946F3E72DE9F04160
:10229000CD1C078A0646FEF783FF043F3D440446F3
:1022A000B5FBF7F5D0B14FF48073EDB2C7808380F2
:1022B000013D066080460027AF4210D23046FEF74F
:1022C0006FFF40B16379013363710137C8F80000D3
:1022D00006608046F0E72046FFF7C2FF0024204654
:1022E000BDE8F08101210430FEF7FEBE10B50121EA
:1022F00004460430FEF704FFC0B220B92046BDE812
:102300001040FFF7ADBF10BD1FB514460392002269
:10231000009203AAFFF74EFF039BA34206D0044995
:10232000F62004B0BDE81040FEF7AEBE04B010BD0C
:1023300008ED00001FB5144603920122009203AA83
:10234000FFF738FF039BA34207D005494FF4807085
:1023500004B0BDE81040FEF797BE04B010BD00BF4A
:1023600008ED000082680023936082681361826830
:1023700053618268D36082685360826813607047DB
:1023800010B50B4AA2F58C739A4201D800200CE0DC
:10239000D11A091103EBC10453F83110814205D859
:1023A00002D204F10803EFE7606810BD2246EBE7B4
:1023B00034F7000008B5FFF7E3FF024B002808BF21
:1023C000184608BD34F7000007B54FF08043D3F836
:1023D000002162B10020C3F80001D3F8002100926F
:1023E000009A0122C3F808230D4B1B6898474FF051
:1023F0008043D3F8042182B10022C3F80421D3F82A
:1024000004210192019A0222C3F80823044B1B689D
:10241000012003B05DF804EB184703B05DF804FB3E
:102420003C12002000F1804000F5C040002382B043
:10243000036003680193019B02B07047C208012347
:1024400000F007008340885C03438B547047000012
:1024500010B50368292B044604D9074940F2CD1072
:10246000FEF712FE23681F2B83BF03F01F032360B8
:1024700002484FF0A04010BD05E3000000030050EB
:1024800013B5019001A80C46FFF7E2FF019B00EB9A
:102490008300D0F8003723F44033C0F80037D0F879
:1024A000003743EA0443C0F8003702B010BD000013
:1024B0004FF0A043D3F810350360024BD3F810352A
:1024C00043607047000300502DE9F04F00248BB0AB
:1024D000CDE902445D4D4FF48072012102F1804349
:1024E00003F5C0431B68012B07D1D5F804330B4219
:1024F00003D090B2FFF796FF0C430432B2F5907F01
:102500004FEA4101EAD1514BD3F87C31012B08D17C
:102510004FF4BE70FFF786FF02A844F00044FFF7B7
:10252000C7FFE3B2D3B14A4F00250126344210D091
:10253000AB0003F1804303F5C043D3F81005D3F893
:10254000101557F8253023B1C1F30141C0F3052020
:1025500098470135082D4FEA4606E7D1002C71DA7D
:102560004FF0FF33CDE906330027BA46DFF8E880A5
:10257000002518F9014F631C4FD0C4F3C209E3B220
:1025800004F03F06012204F00704A240019209F181
:1025900028020DEB0209019919F8102C0A423CD0CF
:1025A0009C092B4B9A1992F9302053F822B0BBF1B9
:1025B000000F0AD1032C30D104A93046CDE904A77D
:1025C000FFF73CFFDDE904A701E0032CF4D008A8E5
:1025D0000896FFF73DFF089A19F8201C019B02F5A9
:1025E000E072194250F82220C2F3014205D0022ABB
:1025F00013D1032C0BD1214604E0032A0DD1032C67
:1026000005D102213046FFF73BFF0135EDB2BBF1AA
:10261000000F02D021463046D8470E4B4345A8D183
:1026200085B108A8FFF744FFDDE9082302998A4233
:1026300002D10399994205D00292CDF818A00393D4
:10264000079793E70BB0BDE8F08F00BF0060004034
:1026500044120020A11200209D12002010B5054C4C
:1026600023681BB904495120FEF70EFD2368BDE81D
:1026700010401847AC12002003F1000038B50C469A
:1026800028B90C497720FEF7FFFC002038BD0A4B23
:102690009842FAD10020FEF7BDFC084B1D7915B910
:1026A00001221C601A710020FEF7C4FC002DECD042
:1026B0001120EBE703F1000000200040AC120020E5
:1026C00018B906499B20FEF7DFBC054B984201BFB5
:1026D000044B00221A601A71704700BF03F100001A
:1026E00000200040AC120020002382B04350435829
:1026F0000193019B02B0704770B5D0F810310546C8
:102700000C4653B14FF48871FFF7EEFF63795A0717
:1027100003D523680BB101209847D5F814315BB17C
:102720004FF48A712846FFF7DFFF63791B0703D553
:1027300023680BB102209847D5F81C315BB12846BD
:102740004FF48E71FFF7D0FF607910F0100002D1C6
:10275000236803B19847D5F8043163B14FF482710F
:102760002846FFF7C1FF0123237123681BB1BDE891
:1027700070400320184770BD01490248FFF7BCBFF5
:10278000B412002000C0014001490248FFF7B4BF65
:10279000BC1200200010024000F1804000F5E04033
:1027A000002382B0036003680193019B02B070476D
:1027B000F0B5534B534CD3F8043185B0002B3DD0CA
:1027C00094F82E204FF48270FFF7E6FF2AB394F8B6
:1027D0002F3013BB4A4AD2F80031002B32D04FF4CD
:1027E0008070FFF7D9FF638B94F82D00834250D996
:1027F00021891B1A9BB289B26383CB1A616801EBF2
:102800004301C2F82C16C2F830064FF48270FFF76D
:10281000C3FF3B4B01225A6014E063680293238993
:10282000ADF80C30E36800218DF8041033BB23743D
:10283000236801A89847002384F82F3094F82E309D
:10284000002BC7D12E4BD3F810315BB14FF48870F9
:10285000FFF7A2FF0023237402238DF8043001A8A0
:1028600023689847264BD3F814310BB34FF48A7082
:10287000FFF792FF0023237405B0F0BD208B608327
:1028800063602081E160002AD2D11D4B01221A60D1
:10289000CEE7BAD1E168012084F82F0031B10020E1
:1028A0006083C2F82C16C2F83036AEE76183ACE71D
:1028B00065694FF000470126002DDDD0B5FA85F29D
:1028C00027FA02F34632920025EA030502F180431B
:1028D00003F5E0431B68002BEED01046FFF75CFFCA
:1028E000D308C2F38002233B82F001028DF8083046
:1028F0008DF8046023688DF8092001A89847DBE76C
:1029000000700040C412002010B50368292B044653
:1029100004D9074940F2CD10FEF7B6FB23681F2B00
:1029200083BF03F01F03236002484FF0A04010BD97
:1029300005E300000003005007B5019001A8FFF770
:10294000E3FF019A01239340C0F80C3503B05DF812
:1029500004FB07B5019001A8FFF7D6FF019A0123F8
:102960009340C0F8083503B05DF804FB13B5144B71
:10297000D3F8182112B30022C3F81821D3F8183164
:10298000104C0193019B236823B90F494FF4277022
:10299000FEF77AFBE07FFF2803D0A37F5BB1FFF750
:1029A000CBFF002363772372D4E90031074802B0DC
:1029B000BDE810401847FFF7CCFFF2E702B010BDAA
:1029C00000300240F412002060F10000FC120020F0
:1029D0002DE9F743002406460F4600F5A0754FF495
:1029E0008038A1462B688BB1D6F8043308FA04F27C
:1029F0001A420BD0C5F800902B680193019BA300ED
:102A000003F5A07398B2D7E9003198470134042C3C
:102A100005F10405E6D103B0BDE8F08301490248A1
:102A2000FFF7D6BF1813002000800040014902487C
:102A3000FFF7CEBF2413002000900040002382B097
:102A4000435043580193019B02B070470A7B0346F1
:102A5000032A2CD8DFE802F024281C028868154AD3
:102A6000904204D1D3F84C250869904209D1886876
:102A700040F2022290421AD1D3F84C254969914282
:102A800015D000200622C3F80005C3F800257047C2
:102A9000D3F84C2508699042F3D1D3F83C25EDE7F3
:102AA000D3F84C250969EAE7D3F83C25FAE7012079
:102AB000704700BF0002040010B50368292B0446CC
:102AC00004D9074940F2CD10FEF7DEFA23681F2B28
:102AD00083BF03F01F03236002484FF0A04010BDE6
:102AE00005E3000000030050F0B50B6887B0054611
:102AF0000C4623B9484940F28620FEF7C5FAD5F8BE
:102B00002431B3B14FF492712846FFF797FFD5F8FF
:102B1000043173B9A368C5F808330223A360A3681E
:102B2000C5F8043301232B626B6184F82E3007B0A3
:102B3000F0BDD5F804316BB34FF48271284604F12F
:102B40000C07FFF77BFF0FCF01AE0FC63B6833606A
:102B500094F82E303BB921462846FFF777FF80F0E6
:102B6000010084F82E004FF4B0712846FFF766FF8D
:102B70004FF4AE71FFF762FF94F8303013B194F860
:102B80002E30CBB10023C5F80032A360234BC5F82B
:102B9000083311E04FF4A4712846FFF74FFF237B61
:102BA0001BBB04F10C070FCF01AE0FC63B683360AF
:102BB00094F83030002BE6D0D5F8C434C5F8C434CE
:102BC0009A0724D413F0050F23D194F82E309B00DC
:102BD000DBB28DF8003094F830300BB984F82F3028
:102BE000D4E9003168469847A1E74FF40073C5F86F
:102BF000003240F20223A36003F1CE73C5F808331C
:102C0000A368C5F804330123AB602B628FE701236F
:102C1000DFE70223DDE700BFB7F1000002029C01FD
:102C200001490248FFF760BF301300200030004028
:102C300002494FF04020FFF757BF00BF6413002048
:102C40002DE9F04F85B00646934601930C4619B91D
:102C50004349E220FEF718FAD4E900239A4203D14F
:102C60003F49E320FEF710FA96F804803D4F3423E5
:102C700003FB08FA07EB0A0595F82D20002A69D115
:102C8000394A306852F82810FFF7F8FC81460028CE
:102C900063D1019B47F80AB06B60A86085F83000EB
:102CA00085F82F00627B85F832202268039203A802
:102CB000FFF702FF039A02F5E07240F20C6540F85C
:102CC000225003A862680392FFF7F6FE039A57F8B2
:102CD0000A3002F5E07240F82250D4E90010326860
:102CE000C2F80815C2F80C05A168C2F824153BB358
:102CF000247B3568072C45F3073503D91B496B2026
:102D0000FEF7C2F9002DB6BF194B05F1604505F07D
:102D10000F054FEA4414E4B2AABF05F561455C55BE
:102D200085F80043336843F30733002B08DB0122A7
:102D3000590903F01F0302FA03F30E4A42F8213047
:102D4000342303FB0877012387F82D30484605B06C
:102D5000BDE8F08F4FF00809F8E74FF01109F5E7EB
:102D6000B7F100003013002048F7000003F2000024
:102D700014ED00E000E100E070B50D4C067934235D
:102D800003FB0643054693F82D30012B04D0094977
:102D90004FF4A570FEF778F92B680622C3F80025DA
:102DA000342303FB0644022384F82D3070BD00BF9A
:102DB00030130020B7F1000070B5114C06793423B0
:102DC00003FB0643054693F82D3023B90D4940F225
:102DD0005510FEF759F934222B6802FB06440021F6
:102DE000094AA160C3F80823D3F8002222F4BC5298
:102DF000C3F80022C3F80015012384F82D3070BDFC
:102E000030130020B7F1000002029C01F7B5294DF4
:102E10000679342303FB0653044693F82D3023B977
:102E2000254940F23110FEF72FF934237343EB5854
:102E300093B1236843F30733002B0DDB5A090121BB
:102E400003F01F03994002F120031C4A42F82310AB
:102E5000BFF34F8FBFF36F8F2046FFF7ADFF2068A2
:102E6000FFF72EFC342303FB065393F83230C3B92B
:102E7000236801A8D3F808350193FFF71DFE019BD5
:102E800003F5E073022740F82370236801A8D3F804
:102E90000C350193FFF710FE019B03F5E07340F83A
:102EA0002370342303FB0655002385F82D3003B02F
:102EB000F0BD00BF30130020B7F1000000E100E0DA
:102EC0002DE9F8430379012B04460D46904607D8B7
:102ED0004B68B3F5803F03D28B68B3F5803F04D3D2
:102EE000BA4940F22F20FEF7CFF894F80490B84E7C
:102EF000342707FB09F7F3599BB92B78022B08D02D
:102F00002B78032B0DD1B1494FF40E70FEF7BCF8AE
:102F100007E0AE4940F23720FEF7B6F8F359002B30
:102F2000EED0342707FB09670023246887F82E308A
:102F3000EB6803F06043B3F1005F03D0102738461D
:102F4000BDE8F883A34BC4F8083397F82F3023B1BA
:102F5000BB68C4F804331127F1E708F01403B3FA8F
:102F600083F35B0987F82F30AE46BEE80F0007F108
:102F70000C0CACE80F00DEF80030CCF80030C8F3E1
:102F8000001387F830306B78C4F888354FF48271BD
:102F90002046FFF753FD4FF49271FFF74FFD18F0F5
:102FA000010318BF0123C4F8503518F0020318BFFD
:102FB0000123C4F840352B78032B00F2CB80DFE8E7
:102FC00003F08DB36E0218F0100F04D07F4940F269
:102FD000AB10FEF759F818F0080F04D07B494FF4F6
:102FE000D670FEF751F818F0040F04D0774940F27C
:102FF000AD10FEF749F82B6903F06043B3F1005FB1
:103000009CD14FF48073C4F800326B68EA68C4F84E
:1030100044252046C4F848354FF4A871FFF70EFD4B
:103020004FF4B071FFF70AFD4FF4A471FFF706FDEE
:1030300001232362A360D4F85031002BFBD04FF45E
:10304000A8712046FFF7FAFCAB682A69C4F844254A
:10305000C4F84835342303FB09635F4A9A604FF490
:1030600082710823002718F0080F04D12A78032A58
:103070001CBF0122E250342303FB09F3F218F3587A
:10308000002B79D018F0040F1CBF4FF4007393602D
:10309000342303FB09639B68C4F804334FE76B6870
:1030A000EA68C4F84425C4F848352B6903F0604247
:1030B000B2F1005F7FF442AFAA68C4F834354FF430
:1030C0008453C4F83825C4F80032342303FB096361
:1030D00040F202229A6001232362C0E76B68EA682B
:1030E000C4F8442518F0200FC4F848354FF03403D5
:1030F0000ED04FF4807203FB0963C4F800224FF432
:10310000A471354A9A60FFF799FC01232362A8E76E
:103110004FF4007203FB0963C4F8002240F202225C
:103120009A604FF48271F0E76B68EA68C4F834255E
:10313000C4F838354FF48053C4F80032342303FB0D
:10314000096340F202229A60012323624FF48271E4
:10315000002387E74FF482710823072783E7D4F819
:10316000243153B14FF492712046FFF767FC0123DD
:1031700023624FF48271636121440B68002BEED00F
:103180003422D4F8C434C4F8C43402FB09610022E8
:1031900081F82F2093B113F0010F14BF4FF40247B1
:1031A000032748F2012213F0020F18BF174613F04D
:1031B000040F48F2022318BF1F46C0E62046FFF75F
:1031C00045FC002808BF0327B9E600BFB7F100009F
:1031D0003013002002029C010002040010B586B0EA
:1031E0000024CDE904249DF820208DF8051052011B
:1031F00001A9CDE902348DF80440FFF761FE06B065
:1032000010BD10B586B0012402930023CDE903322E
:103210008DF805101A4601A98DF804400593FFF7B3
:103220004FFE06B010BD002382B0435043580193B7
:10323000019B02B070470A4610B54FF48E71FFF73C
:10324000F2FF136A9168C95C136A01331362C0F814
:103250001C1510BD08B502464FF492710068FFF7C7
:10326000E2FF10684FF48471FFF7DDFF136801225D
:103270001A6008BD10B50368292B044604D9074914
:1032800040F2CD10FDF700FF23681F2B83BF03F032
:103290001F03236002484FF0A04010BD05E300006B
:1032A0000003005007B5019001A8FFF7E3FF019B61
:1032B00003F5E073022240F8232003B05DF804FB1D
:1032C00010B58B690A464FF4847123B9FFF7ABFF41
:1032D000D0F8183510BDFFF7A6FF536AD168D0F8B3
:1032E0001805C854536A01335362F3E71FB501232D
:1032F0008DF80030044BCDE90110D3E90012684687
:10330000904705B05DF804FB9813002030B54E4D92
:10331000D5F804339A0585B051D5D5F82431002B62
:103320004DD04FF492712846FFF77DFF4FF40173A3
:10333000C5F80833454B93F829200AB901226A6081
:10334000414902228DF80020D1F88024C1F8802460
:1033500003929A690292DA6801920022C3E9062276
:103360006846D3E9001290473748D0F81C315BB16A
:10337000364A5169136A99424ED992F82830002B87
:103380004AD11146FFF757FF2F48D0F84431002BA0
:1033900057D04FF4A271FFF746FF2C4B93F829202A
:1033A0000AB1012202609A69002A4AD0586AD96893
:1033B00000229A6105B0BDE83040FFF797BFD5F80D
:1033C00004335B07D0D5D5F80831002BCCD01F4C87
:1033D0001D482146FFF774FF636AA2699A42C3D170
:1033E000E36953B1A3612369E168E3600023606A84
:1033F000E3616362FFF77AFFB6E794F829300BB90F
:1034000001236B60104B4FF40172C3F808230023B3
:10341000606AE168A361EDE70B484FF48E71FFF736
:1034200002FF5369002BAFD05169029100239168CC
:103430008DF80030019153616846D2E90013984736
:10344000A2E705B030BD00BF002000409813002067
:103450002DE9F743054691460C4619B96B49AA2058
:10346000FDF712FE95F80480694E2C2303FB0863D8
:1034700093F82A30002B40F0C48066492868FFF793
:10348000FDF80746002840F0BE8023685A1C13D080
:1034900001A80193FFF7EEFE019A01239340C0F8C3
:1034A00008352368019301A8FFF7E4FE019B03F5AB
:1034B000E073032240F823206368581C09D001A858
:1034C0000193FFF7D7FE019B03F5E073002240F85C
:1034D00023202B68A269C3F82425217D637D2A68F7
:1034E0000B43C2F86C35D4E900122B68C3F81425DD
:1034F000C3F80C15237D012B2AD1A368591C09D0D0
:1035000001A80193FFF7B6FE019B03F5E0730022CB
:1035100040F82320E3685A1C13D001A80193FFF759
:10352000A9FE019A01239340C0F80835E36801938E
:1035300001A8FFF79FFE019B03F5E073032240F80B
:103540002320D4E902122B68C3F80825C3F810150C
:103550002C2303FB08F3F218C2F804902269F250FE
:10356000B9F1000F39D0286894F81C902A4A4FF41A
:103570008E71FFF758FE28684FF4A271FFF753FED3
:103580002B68C3F804232C68B9F1070F44F3073400
:1035900003D922496B20FDF777FD002CB6BF204BE5
:1035A00004F1604404F00F044FEA49195FFA89F905
:1035B000AABF04F5614403F8049084F800932B68D3
:1035C00043F30733002B08DB0122590903F01F03E3
:1035D00002FA03F3134A42F821302B680422C3F89D
:1035E00000252C2303FB08660023C6E9063386F872
:1035F00029307361012386F82A30384603B0BDE8CC
:10360000F0830827F9E71127F7E700BF4CF2000025
:10361000981300200D3300008000020003F2000028
:1036200014ED00E000E100E02DE9F84303680679BD
:103630002A4D0022C3F800252C2303FB0653044621
:103640005B68B3B10368264AC3F80823036843F3F1
:103650000733002B0DDB5A09012103F01F039940AA
:1036600002F120031F4A42F82310BFF34F8FBFF32C
:103670006F8F23684FF0FF32D3F80C05D3F8149501
:10368000D3F80875D3F81085C3F81425C3F80C25B2
:1036900023689042C3F80825C3F8102501D0FFF72E
:1036A00001FEB9F1FF3F02D04846FFF7FBFDB8F13C
:1036B000FF3F02D04046FFF7F5FD7B1C02D03846A5
:1036C000FFF7F0FD2068FEF7FBFF2C2303FB0655F8
:1036D000002385F82A306B60BDE8F883981300203A
:1036E0008402020000E100E00279044B2C2101FB7E
:1036F00002335869003818BF012070479813002022
:103700002DE9F047DFF8C8A090F804902C2303FBC4
:1037100009A3064693F82A30012B0F46904604D0A1
:103720002A494FF48C70FDF7AFFC27B9274940F2C6
:103730001910FDF7A9FCB8F1000F04D123494FF48B
:103740008D70FDF7A1FC3046FFF7CEFF054600283F
:1037500037D12C2404FB09A44FF48E71C4F81480D3
:10376000A760206284F828003068FFF75CFD3368AA
:1037700001229A6030682146FFF75DFD636813BB44
:1037800030686569236A9D4211D83368D3F81C21DB
:10379000002AFBD00122DA6000202C2303FB09A3BE
:1037A00000225A61BDE8F08794F828303BB9D0F880
:1037B0001C31002BF8D02146FFF73DFDE2E70F203A
:1037C000EBE71120EEE72846ECE700BF4CF20000E3
:1037D000981300202DE9F041494C06792C2303FB76
:1037E0000643054693F82A30012B8846174604D035
:1037F00044494FF4B670FDF747FCB8F1000F04D10F
:10380000404940F26D10FDF73FFC27B93D494FF4A8
:10381000B770FDF739FC2C2303FB0643596821B12F
:103820002B684FF40172C3F808232C2303FB0643D3
:103830009A6952B1DA69002A34D021B12B684FF469
:103840000172C3F8042311202AE09F61C3F80C80A1
:103850005A6217462C2303FB0643DF6193F8293095
:103860001BB912B92846FFF7F5FC2C2707FB0647C2
:1038700028687B68002B3DD14FF4A271FFF7D3FC81
:103880002868D0F82421D0F80811D0F84431194321
:103890000CD1002AF4D02C2303FB064399610320AA
:1038A000BDE8F081C3F810800122D3E753EA020893
:1038B00013D13946FFF704FD7B6ABA699A42DFD813
:1038C000C7F818802C2202FB06442B6894F82910B4
:1038D000012269B11A600020E2E72C2101FB0641B8
:1038E00000208861002ADAD1002BEBD00F20D7E727
:1038F0005A60F0E74FF40173C0F80433EBE700BF00
:10390000981300204CF20000002382B0435043582B
:103910000193019B02B070471FB50123CDE901213E
:103920008DF80030D0E900136846984705B05DF87F
:1039300004FB000010B50368292B044604D907498D
:1039400040F2CD10FDF7A0FB23681F2B83BF03F0CF
:103950001F03236002484FF0A04010BD05E30000A4
:103960000003005007B5019001A8FFF7E3FF019B9A
:1039700003F5E073022240F8232003B05DF804FB56
:103980007FB5D0F8246105460C46002E5CD04FF47C
:103990009271FFF7B9FF02238DF80030D0F8803420
:1039A000C0F880340393D0F83C350293E368019368
:1039B0000023C4E906336846D4E900139847D5F8D4
:1039C00044317BB14FF4A2712846FFF79DFFA369F4
:1039D00043B10023C4E90633E268D5F83C1520461C
:1039E000FFF79AFFD5F82031ABB14FF4907128461C
:1039F000FFF78AFF0123EB60636963B1D5F84C25BB
:103A000002920023A2688DF8003063610192D4E92C
:103A1000001368469847D5F858319BB14FF4AC7104
:103A20002846FFF771FF636963B1D5F84C25029210
:103A30000023A2688DF8003063610192D4E900137D
:103A40006846984704B070BDD0F81031002BB6D04E
:103A50004FF48871FFF758FFD0F83C35A1699942BF
:103A6000ADD1E369E26873B1D0F8003223F02003EE
:103A7000C0F80032E369A3612369E360E661204690
:103A8000FFF74AFF9BE7A361F9E7000001490248FD
:103A9000FFF776BFC4130020002000400149024810
:103AA000FFF76EBFE8130020008002402DE9F743C6
:103AB000054691460C4619B97249CF20FDF7E4FA44
:103AC00095F80480704E242303FB086393F820309C
:103AD000002B40F0D3806D4B286853F82810FEF778
:103AE000CDFD0746002840F0CB8023685A1C13D038
:103AF00001A80193FFF71EFF019A01239340C0F82C
:103B000008352368019301A8FFF714FF019B03F513
:103B1000E073032240F823206368581C09D001A8F1
:103B20000193FFF707FF019B03F5E073002240F8C4
:103B300023202B68A269C3F82425217D637D2A6890
:103B40000B43C2F86C35D4E900122B68C3F80C158E
:103B5000C3F81425237D012B2AD1A368591C09D051
:103B600001A80193FFF7E6FE019B03F5E073002235
:103B700040F82320E3685A1C13D001A80193FFF7F3
:103B8000D9FE019A01239340C0F80835E3680193F8
:103B900001A8FFF7CFFE019B03F5E073032240F875
:103BA0002320D4E902212B68C3F80815C3F8102597
:103BB000242303FB08F3F218C2F804902269F250A0
:103BC000B9F1000F48D0286894F81C90304A4FF49F
:103BD0008871FFF799FE28684FF49071FFF794FE03
:103BE00028684FF49271FFF78FFE28684FF4A27196
:103BF000FFF78AFE28684FF4AC71FFF785FE2B684B
:103C0000C3F804232C68B9F1070F44F3073403D930
:103C100020496B20FDF738FA002CB6BF1E4B04F18B
:103C2000604404F00F044FEA49195FFA89F9AABF0A
:103C300004F5614403F8049084F800932B6843F37F
:103C40000733002B08DB0122590903F01F0302FA96
:103C500003F3124A42F821302B680822C3F80025EA
:103C6000242303FB08660023C6E90633736101239E
:103C700086F82030384603B0BDE8F0830827F9E71E
:103C80001127F7E79DF20000C413002050F7000051
:103C90001003420003F2000014ED00E000E100E038
:103CA0002DE9F843364D0679242303FB06530446D9
:103CB0005B68B3B10368334AC3F80823036843F36E
:103CC0000733002B0DDB5A09012103F01F03994034
:103CD00002F120032C4A42F82310BFF34F8FBFF3A9
:103CE0006F8F2268D2F8003223F02003C2F800322E
:103CF000236801225A6020684FF4AC71FFF704FE7C
:103D00002368DA602368D3F85821002AFBD0002208
:103D1000C3F8002523684FF0FF32D3F80C05D3F821
:103D20001495D3F80875D3F81085C3F80C25C3F89B
:103D3000142523689042C3F80825C3F8102501D044
:103D4000FFF710FEB9F1FF3F02D04846FFF70AFE29
:103D5000B8F1FF3F02D04046FFF704FE7B1C02D0C3
:103D60003846FFF7FFFD2068FEF7AAFC242303FB7B
:103D70000655002385F820306B60BDE8F88300BF4E
:103D8000C41300201003420000E100E00279044B5C
:103D9000242101FB02335869003818BF0120704705
:103DA000C41300202DE9F047394F90F804A02423D4
:103DB00003FB0A73054693F82030012B8846914691
:103DC00004D0344940F22D10FDF75EF9B8F1000F30
:103DD00004D130494FF49770FDF756F9B9F1000F4F
:103DE00004D12C4940F22F10FDF74EF92B79012B0D
:103DF00002D8B9F5803F04D326494FF49870FDF7F7
:103E000043F908F06043B3F1005F3AD12846FFF769
:103E1000BDFF0446002836D1242606FB0A764FF45F
:103E20009071C6F81490C6F808802868FFF76CFDFA
:103E30004FF4AC712868FFF767FD2B687269B168B1
:103E4000C3F84415C3F848252B6801229A607368AB
:103E5000DBB92B68D3F82021D3F858010243F9D0FD
:103E600068B90122DA602A68D2F85831002BFBD0F9
:103E7000242303FB0A7700237B61BDE8F0870F2032
:103E8000F6E71020F9E71120F7E72046F5E700BF35
:103E9000C41300209DF200002DE9F8434E4D90F828
:103EA0000480242303FB0853044693F82030012B9D
:103EB0000F46164604D049494FF4C070FDF7E4F8A8
:103EC00027B9464940F28110FDF7DEF826B943498B
:103ED0004FF4C170FDF7D8F82379012B02D8B6F55D
:103EE000803F04D33D4940F28310FDF7CDF807F041
:103EF0006043B3F1005F6CD1242303FB085359687E
:103F000021B123684FF40472C3F80823242303FB70
:103F100008539A695AB1DA69002A3CD021B1236862
:103F20004FF40472C3F804231120BDE8F8839E61A6
:103F3000DF609146242303FB08584FF48871C8F8CA
:103F40001C202068FFF7E0FC20684FF4A271FFF707
:103F5000DBFC2368C3F83475C3F838652368B9F10E
:103F6000000F1DD101221A6023792268242101FB50
:103F70000351496839BBD2F81011D2F84441D2F844
:103F80002401214313D10028F5D0242202FB03533E
:103F900003209961C9E71F6132464FF00109C9E763
:103FA000D3F8002242F02002C3F80022DCE72422EA
:103FB00002FB03550023984218BF03209C42AB61CB
:103FC00018BF0F20B1E74FF40473C2F80433002088
:103FD000ABE71020A9E700BFC41300209DF200004A
:103FE000BFF34F8F0549064BCA6802F4E0621343E2
:103FF000CB60BFF34F8F00BFFDE700BF00ED00E0D7
:104000000400FA054FF08053D3F830210D2A03BF86
:10401000D3F83401B0FA80F0400900207047000066
:1040200008B5FFF7EFFF40B14FF080430022C3F81F
:104030000C21C3F81021C3F83825FFF7E3FF00284F
:1040400046D04FF08052584BD2F80414C3F82015D4
:10405000D2F80814C3F82415D2F80C14C3F82815A4
:10406000D2F81014C3F82C15D2F81414C3F8301574
:10407000D2F81814C3F83415D2F81C14C3F840153C
:10408000D2F82014C3F84415D2F82414C3F8481504
:10409000D2F82814C3F84C15D2F82C14C3F85015D4
:1040A000D2F83014C3F85415D2F83414C3F860159C
:1040B000D2F83814C3F86415D2F83C14C3F8681564
:1040C000D2F84014C3F86C15D2F84424C3F8702514
:1040D000FFF798FF48B14FF08043D3F80024D10791
:1040E00044BF6FF00102C3F80024304AD2F8883090
:1040F00043F47003C2F88830BFF34F8FBFF36F8F64
:104100004FF01023D3F80C22D2071DD5284B0122E3
:10411000C3F80425D3F80024002AFBD04FF0102266
:10412000D2F80C3223F00103C2F80C32204BD3F842
:104130000024002AFBD00022C3F80425D3F8002471
:10414000002AFBD0FFF74CFFD3F80022002A03DB44
:10415000D3F80432002B22DA154B0122C3F80425D0
:10416000D3F80024002AFBD04FF010221221C2F80D
:104170000012D3F80024002AFBD04FF010231222A3
:10418000C3F804220A4BD3F80024002AFBD00022F3
:10419000C3F80425D3F80024002AFBD0D2E7054B4E
:1041A000054A1A6008BD00BF00C0004000ED00E0F5
:1041B00000E001401C0000200090D0030649074A9F
:1041C000074B9B1A03DD043BC858D050FBDCFFF7BC
:1041D00027FFFCF75FF8000010FC00000000002043
:1041E00004070020FEE7FEE7FEE7FEE7FEE7FEE746
:1041F000FEE7FEE7FEE7FEE708B50021044600F013
:10420000B5FB034B1B6803B19847204609F052FBEE
:10421000441500200FB400B5074983B004AB08680B
:1042200053F8042B8168019303F026F903B05DF87D
:1042300004EB04B0704700BF2C000020B1FA81F2FB
:1042400052094FF48063520000F000B82DE9F041AC
:10425000664CD4F8008084B004460E4617461D46CE
:10426000B8F1000F04D0D8F83430002B00F0A6804D
:10427000022F05D0012F00F2A580002DC0F2A280F0
:10428000636EDB073DD52146404605F0C3FC216B3C
:1042900041B104F14003994202D0404600F028FCAD
:1042A00000232363B4F90C3000221906A261626076
:1042B00057D423F44A6323F00303022FA3815DD074
:1042C00003AB02AA2146404605F03EFBA3891843F2
:1042D000A081EDB1EEB1D8F8343043B3029AB4F90D
:1042E0000C30AA421CBF43F40063A381012F22D0EB
:1042F0001807C4E90465266027D5D90753D4A560FB
:1043000025E0A3899805BED4A06D00F001FABAE7B4
:10431000029D284600F0E4FC0646002855D0A389FB
:1043200043F08003A381D8F83430002BD6D1404627
:1043300000F04AF9D2E743F00102C4E9046512B281
:1043400026601E07A2812FD413460022A260626E4F
:10435000D20701D49B052DD50025284604B0BDE821
:10436000F0812169404600F0C3FBB4F90C3023F41E
:104370004A6323F00303022FA381A1D1002543F058
:104380000201A181002104F14302A1600121C4E9DD
:1043900004212260626ED207DFD49F05DDD4A06DB8
:1043A00000F0B8F9D9E71A4600236D42A360A56171
:1043B0001346CCE7A06D00F0ADF9CDE7404600F024
:1043C00003F955E74FF0FF35C7E7029BAB4208D032
:1043D0001846019300F084FC019B06461D46002808
:1043E0009DD1B4F90C304FF0FF35C8E72C00002008
:1043F0000CB410B5214B00291C689CB038DB4FF081
:1044000000034FF402721B93ADF814200290069043
:104410001FAB18D001394FF6FF7204910791ADF828
:10442000162002A91E9A0193204600F02DFF421C7F
:1044300001DA8B232360029B00221A701CB0BDE8B6
:10444000104002B070474FF6FF7204910791ADF82B
:10445000162002A91E9A0193204600F015FF431C66
:1044600001DA8B2323601CB0BDE8104002B0704716
:104470008B2323604FF0FF30F5E700BF2C000020B6
:10448000024A0349034805F0D5B900BF20000020C7
:10449000219A0000300000200C4B4168994210B571
:1044A000044601D005F0BCFAA168094B994202D03C
:1044B000204605F0B5FAE168064B994204D0204643
:1044C000BDE8104005F0ACBA10BD00BF0C140020D0
:1044D00074140020DC1400202DE9F843314A324CDA
:1044E0003249DFF8DC90DFF8DC80314F11600025C5
:1044F00004232946082204F15C00C4E903352D4E4B
:10450000A560C4E90055C4E90555656600F086F864
:1045100004F15800C4E90749C4E90987E66200F0DC
:10452000F3F82946244B6367082204F1C400C4E968
:104530001A55C4E91E552567C4F8CC50C4F88050FC
:1045400000F06CF804F1680304F1C000C4F8843092
:10455000C4E92298C4E9247600F0D6F8174BC4F8D1
:10456000DC30294604F596700822C4E93455C4E9C4
:104570003855C4F8D850C4F83451C4F8E85000F0A5
:104580004DF804F1D003C4E93D87C4F8F09004F578
:104590009470C4F8FC60C4F8EC30BDE8F84300F057
:1045A000B3B800BF441500200C1400208144000063
:1045B000CD9C0000F19C00000900010012000200E7
:1045C000699C00008D9C000010B504460A4800F06C
:1045D0009FF8636B23B9094B094A1B68626323B1D7
:1045E000BDE81040044800F095B8FFF775FFBDE83E
:1045F0001040014800F08EB85015002044150020EE
:1046000099440000014800F083B800BF5015002015
:10461000014800F07FB800BF50150020830730B577
:1046200046D08418844604E003F8011B9D0704D09B
:104630009C46A4456346F7D130BD013A0244A2EB43
:104640000C02032A29D9CCB204EB04240F2A04EB70
:1046500004442FD9A2F1100C2CF00F0C03F110051B
:10466000AC44C3E90044C3E9024410336345F8D1C4
:1046700012F00C0F02F00F0E18D02EF0030C9C4419
:10468000AEF104051A4642F8044B6245FBD125F011
:10469000030404330EF003022344002ACCD0C9B231
:1046A0001A4403F8011B9342FBD130BD7246F4E774
:1046B0000346C6E79646E0E770B50F4B0F4DAB4299
:1046C000A3EB050607D0B610002455F8043B0134CF
:1046D0009847A642F9D809F083FD094D094B5E1BA6
:1046E000AB424FEAA60606D0002455F8043B01343D
:1046F0009847A642F9D870BDF4060020F4060020C1
:10470000F406002000070020704700BF704700BF7C
:10471000704700BF704700BF844641EA000313F0B2
:1047200003036DD1403A41D351F8043B40F8043BB8
:1047300051F8043B40F8043B51F8043B40F8043B7B
:1047400051F8043B40F8043B51F8043B40F8043B6B
:1047500051F8043B40F8043B51F8043B40F8043B5B
:1047600051F8043B40F8043B51F8043B40F8043B4B
:1047700051F8043B40F8043B51F8043B40F8043B3B
:1047800051F8043B40F8043B51F8043B40F8043B2B
:1047900051F8043B40F8043B51F8043B40F8043B1B
:1047A00051F8043B40F8043B403ABDD2303211D3BB
:1047B00051F8043B40F8043B51F8043B40F8043BFB
:1047C00051F8043B40F8043B51F8043B40F8043BEB
:1047D000103AEDD20C3205D351F8043B40F8043BBB
:1047E000043AF9D2043208D0D2071CBF11F8013BB9
:1047F00000F8013B01D30B8803806046704700BF7F
:10480000082A13D38B078DD010F003038AD0C3F18D
:104810000403D21ADB071CBF11F8013B00F8013B6F
:1048200080D331F8023B20F8023B7BE7043AD9D32E
:10483000013A11F8013B00F8013BF9D20B78037003
:104840004B7843708B78837060467047000000009F
:104850000000000000000000000000000000000058
:104860000000000000000000000000000000000048
:104870000000000000000000000000000000000038
:1048800030B490F800F020F007016FF0000C10F049
:10489000070491F820F040F048804FF000046FF0DA
:1048A0000700D1E9002391F840F000F1080082FAF6
:1048B0004CF2A4FA8CF283FA4CF3A2FA8CF34BBBC1
:1048C000D1E9022382FA4CF200F10800A4FA8CF23A
:1048D00083FA4CF3A2FA8CF3E3B9D1E9042382FA08
:1048E0004CF200F10800A4FA8CF283FA4CF3A2FA1D
:1048F0008CF37BB9D1E9062301F1200182FA4CF255
:1049000000F10800A4FA8CF283FA4CF3A2FA8CF3BB
:10491000002BC6D0002A04BF04301A4612BAB2FADD
:1049200082F200EBD20030BC7047D1E9002304F0E2
:104930000305C4F100004FEAC50514F0040F91F817
:1049400040F00CFA05F562EA05021CBF63EA0503B4
:1049500062464FF00004AAE7024B13B1024800F090
:1049600065B8704700000000A99F00002DE9F04FD6
:104970002C4B2D4F83B082461868CDF804A08B468F
:10498000FFF7C6FE3E68AEB14FF000094FF00108D8
:104990007468651E0ED4013406EB8404BBF1000F6D
:1049A0000FD0D4F800315B450BD0013D6A1CA4F157
:1049B0000404F6D11B4B186803B0BDE8F04FFFF7B5
:1049C000A9BE73682268013BAB420CBF7560C4F896
:1049D000009072B1D6F88811D6F804A008FA05F351
:1049E0000B420CD1904773683A68534513D1B242D9
:1049F00011D1013D6B1CA4F10404CFD1DAE7D6F844
:104A00008C01D4F88010034209D101989047736853
:104A10003A685345EBD0002ACCD01646B8E7084692
:104A20009047E0E770010020541500200023014664
:104A30001A46184605F04EBB2DE9F84306460820F5
:104A4000894605F0A3FADFF8A4800546304604F055
:104A5000E5FED8F808305F6827F00307A7F11104D6
:104A6000A4EB09042C44B4FBF5F4013C05FB04F46D
:104A7000A54208DC0021304605F060FAD8F808307D
:104A80003B44984205D0304604F0CEFE0020BDE8FD
:104A9000F8836142304605F051FA01300FD0114AD7
:104AA000D8F808303F1B47F001075F6013683046B5
:104AB0001B1B136004F0B8FE0120BDE8F883002141
:104AC000304605F03BFAD8F80820831A0F2BDADDC0
:104AD00043F001035360044B02491B68C01A08608D
:104AE000D1E700BF5815002074010020800100208C
:104AF00000295BD0F8B50C46074604F08FFE54F849
:104B000004CC744DA4F108022CF00103D118A8685C
:104B10004E68884226F003060CF0010E7ED08819FC
:104B20004E60406800F00100BEF1000F2FD154F834
:104B3000084C121B2344946805F1080C644562D0AC
:104B4000D2F80CE0C4F80CE0CEF8084000287FD082
:104B500043F0010050600B60B3F5007F2FD2D908FD
:104B600068685C090131012309B2A34003436B600B
:104B700055F83100906005EBC103083BD36045F860
:104B80003120C2603846BDE8F84004F04DBE70B92F
:104B9000334405F1080C8868604543F0010471D086
:104BA000C968C16088605460D350D5E770474CF045
:104BB0000101B3F5007F44F8041CD350CFD3B3F503
:104BC000206F4FEA532045D2980900F1390109B20C
:104BD00000F13804C900681869580838884203D1C0
:104BE00057E08968884204D04C6824F003049C4252
:104BF000F7D8C868C2E9021082603846CA60BDE8CA
:104C0000F84004F011BE88BB1E44D1E90213CB600A
:104C1000996046F0010353609651B3E71E44BEF11C
:104C2000000F07D154F8083CD21A1E44D2E90213EF
:104C3000CB60996046F001035360274BAA601B6864
:104C4000B3429FD8254B38461968FFF7F5FE99E720
:104C50003344A0E714280ED9542821D8180B00F1AA
:104C60006F0109B200F16E04C900B4E743F001001E
:104C700050600B6086E700F15C0109B200F15B0453
:104C8000C900A8E7C5E90422C2E902CC5460D350A8
:104C900078E76E68A4100123A34033436B60A9E753
:104CA000B0F5AA7F07D8D80B00F1780109B200F15E
:104CB0007704C9008FE740F25451884206D8980C17
:104CC00000F17D0100F17C04C90084E74FF47E719E
:104CD0007E2480E7800100207801002088150020D4
:104CE000024B0146186800F003B800BF2C000020FA
:104CF0002DE9F04F01F10B05162D83B0064623D8A0
:104D0000102900F2B48004F089FD10251823022038
:104D1000B84F3B44A3F108025C68944200F0648100
:104D20006368E268A16823F00303CA602344304645
:104D300091605A6842F001025A6004F075FD08342F
:104D4000204603B0BDE8F08F35F0070500F18F80F5
:104D5000A94200F28C8004F061FDB5F5FC7FC0F043
:104D6000B8815FEA552E00F08980BEF1040F00F291
:104D700070814FEA951E0EF1390003B20EF1380E24
:104D8000DB009C4F3B44A3F1080C5C68A44507D1B1
:104D90000DE0002AE16880F221818C4507D00C46A5
:104DA000636823F003035A1B0F2AF2DD7046DFF815
:104DB0005C823C69444500F0FE80636823F0030C8C
:104DC000ACEB05030F2B00F38981002BC7E90488A6
:104DD00080F27381BCF5007FD7F804E080F0188181
:104DE0004FEADC03013319B24FEA5C1C012303FADA
:104DF0000CF357F83120A2604EEA030E07EBC10313
:104E0000083BE360C7F804E047F83140D460831002
:104E10004FF0010C0CFA03FCF44535D81CEA0E0FD8
:104E200008D120F003004FEA4C0C1CEA0E0F00F1F1
:104E30000400F8D007EBC00AD6468146DEF80C30F5
:104E40000BE0596821F003014A1B0F2A1C46DB685E
:104E500000F30F81002A80F223819E45F1D109F1F0
:104E6000010919F0030F0EF1080EE7D161E10C23DF
:104E700033600024204603B0BDE8F08F4FF4007388
:104E800040204FF03F0E7CE7BC68636823F00309C5
:104E9000A94504D3A9EB05030F2B00F38F80564BD4
:104EA0001B68082003F1100804EB0903009305F0C8
:104EB0006DF8524A13680133A844834605D008F1BF
:104EC000FF388044434203EA08084146304605F073
:104ED00035F8B0F1FF3F494A824600F01B8104EBF0
:104EE0000903834200F21481454B186840440BF1DA
:104EF000FF3C186000F072811168013100F07A8186
:104F000004EB0902AAEB020202441A601AF007023B
:104F1000CDE9002300F03281C2F108029244D0446E
:104F200008EA0C015A44521A02EA0C0B5946304660
:104F300005F004F8421C019B00F07981A0EB0A0007
:104F400000EB0B081868C7F808A048F001025844A5
:104F5000BC42CAF80420186016D0B9F10F0F40F215
:104F60004C816168A9F10C0222F0070201F00101F5
:104F7000114361604FF0050CA1180F2AC1E901CC63
:104F800000F25D81DAF804201E4B1968814238BFB7
:104F900018601D4B1968814238BF1860544622F0D2
:104FA0000308A845A8EB050301D30F2B06DC304608
:104FB00004F03AFC5DE7D7F804E028E7621943F013
:104FC000010345F0010565603046BA60536004F0A6
:104FD0002BFC0834204603B0BDE8F08FA2682344C0
:104FE000D16030468A60A4E6DC68A3427FF498AEC4
:104FF0000230DCE6800100208815002074010020CA
:1050000058150020841500208015002088010020FC
:10501000BCF5206F4FEA5C2272D3142A00F2C180E3
:1050200002F15C031BB25B32DB00F918FB58083954
:10503000994203D198E09B68994204D05A6822F0C3
:1050400003026245F7D8D968C4E902318C60DC609C
:10505000DDE6BEF1140F60D9BEF1540F00F2AB8053
:105060004FEA153E0EF16F0003B20EF16E0EDB003B
:1050700087E6D4F808C03046661945F0010565603A
:10508000CCF80C30C3F808C042F00103C7E904664D
:10509000C6E902887360625004F0C6FB0834E9E692
:1050A000214430464A6842F001024A6054F8082F11
:1050B000D3609A6004F0B8FBDCE6A4443046DCF828
:1050C000043043F00103CCF8043004F0ADFB0834A5
:1050D000D0E6E808431C1BB2DB0019E6621943F076
:1050E000010145F0010565603046C7E90422C2E9C7
:1050F0000288516044F80C3004F096FB0834B9E69D
:105100004FEA9C1202F139031BB23832DB008CE704
:10511000BC425CD0BC68626841E70EF15C0003B23F
:105120000EF15B0EDB002CE65AF80839534540F0CF
:10513000A68010F0030F00F1FF30F5D17B6823EA61
:105140000C037B604FEA4C0C9C453FF69DAEBCF1D6
:10515000000F04D198E64FEA4C0C09F104091CEA4F
:10516000030FF8D0484665E692104FF0010C0CFA98
:1051700002F24EEA020EC7F804E065E70AEB080205
:1051800002EA0C02ABEB020202EA0C0B5946304673
:1051900004F0D4FE431C019B7FF4D0AEDDF800B0D8
:1051A000D0E6542A2DD84FEA1C3202F16F031BB20D
:1051B0006E32DB0039E7BEF5AA7F2DD84FEAD53E27
:1051C0000EF1780003B20EF1770EDB00D9E52D4B1E
:1051D000186840440BF1FF3C18608DE61AEA0C0F8A
:1051E0007FF48AAED7F808A0C84448F00102CAF894
:1051F0000420C9E6C2F800A088E60123CAF80430FA
:10520000D5E6B2F5AA7F25D84FEADC3202F1780361
:105210001BB27732DB0008E740F254539E4524D896
:10522000AB0C03F17D0003F17C0EC300A9E5009AED
:10523000083A9044A8EB0A084FF0000B82E630468B
:1052400004F108010093FFF753FC009BD7F808A076
:10525000186897E640F254539A420CD84FEA9C42A1
:1052600002F17D03DB007C32DFE64FF47E737F20AA
:105270004FF07E0E85E54FF47E737E22D5E67B6887
:1052800060E700BF581500202DE9F04FD7B00C465D
:10529000069115460A93834604F0E6FD03681393CE
:1052A0001846FFF7EDFA00211290082226A8FFF712
:1052B000B5F9A389190603D52369002B01F0AE8047
:1052C0009FED777B00239E46CDE916EE8DED0E7B9C
:1052D000CDE92B332DAB2A931C46CDF850E0CDF809
:1052E00054E0CDF810E0CDF834E02F463D466E4B4B
:1052F000D3F8E46004F0B2FD26AA0346009222A986
:105300002A465846B047002800F09880C0F28E80A8
:10531000229A252A034601D01D44E8E7B5EB070889
:10532000064640F08F8000234FF0FF328DF87F302B
:105330009A46059301352B78039201359946A9F1D8
:1053400020035A2B00F2B280DFE813F04402B000D1
:10535000B0004002B000B000B0002302B000B000C6
:10536000EE01FD01B000F9010602B00002025B008F
:105370005B005B005B005B005B005B005B005B0055
:10538000B000B000B000B000B000B000B000250127
:10539000B0007C010203250125012501B000B00009
:1053A000B000B000FE02B000B0004E02B000B0008D
:1053B000B000B901B000A402B000B000C007B00056
:1053C000B000B000B000B000B000B000B0002501E7
:1053D000B0007C0167012501250125012203670139
:1053E0006C00B0003B03B0002C03700345036C005D
:1053F000B000B9016A00DD02B000B0003008B000B2
:105400006A00A9F13003002215F8019B02EB820229
:1054100003EB4202A9F13003092BF5D905928EE77F
:105420002B788AE72B784AF0200A86E708220021A9
:1054300026A8FFF7F3F801231D4458E7B5EB07084A
:10544000064612D0DDF8ACE02C9B0EF1010243447D
:10545000072AC4E900782C932B9215DC0834049BAE
:1054600043440493002E7FF45EAF2C9B002B41F04D
:105470006883069B9B8903F04003002B41F0C5879E
:10548000049857B0BDE8F08F06992AAA584604F050
:105490009BFA0028EDD12DACE1E700BFAFF300800F
:1054A000000000000000000088050020B9F1000F96
:1054B000DBD00023CDE90B3301228DF8F4908DF879
:1054C0007F3007930892039311933DAF02922C9E75
:1054D00010961AF0840300F0E4809DF87F2002B358
:1054E0002B984FF000080130012201366260072836
:1054F0000DF17F02CDE92B06226000F3028408340F
:10550000B8F1000F0DD02B98013020AA023622608E
:1055100007284FF00202CDE92B06626000F3E58315
:105520000834802B00F0EC82039B089AA3EB02085E
:10553000B8F1000F00F329831AF4807F40F08982CC
:10554000089B63601E442B9B27600133072B2C961E
:105550002B9300F3728308341AF0040F05D0059BD7
:10556000029A9F1A002F00F3DA83DDE904320299D0
:105570008A42ACBF9B185B180493002E40F03D8319
:1055800000232B93079B1BB107995846FFF7B0FAEE
:105590002DAC2F46AAE60A9B073323F00703B3EC92
:1055A000027B8DED0E7B0A930F9B8DED1A7A23F013
:1055B00000431B93DDE91A01B34B4FF0FF3208F0B3
:1055C000D1FD002840F02886DDE91A01AE4B4FF0EE
:1055D000FF3208F0A9FD0646002840F01D86DDE9EF
:1055E0000E01002200232AF0800A08F093FD002813
:1055F00041F0F1819DF87F30B9F1470FCCBFA34F47
:10560000A34F002B41F0DF850322CDE90B33079335
:10561000089203931193029259E71AF0200F40F079
:10562000B3850A9A1AF0100F52F8046B41F01B87E9
:105630001AF0400F0A9201F0168146F3C038434633
:1056400036B295E10A9BB9F1430F03F1040603D08A
:105650001AF0100F00F0BB860822002128A8FEF7E0
:10566000DDFF0A9B3DAF1A68394628AB584604F067
:10567000FFFC03460133089001F0C286089B23EA31
:10568000E37302930023CDE90B330A968DF87F3044
:105690002C9E0793039311931AF0840310967FF4C2
:1056A0001CAF059A0298A2EB0008B8F1000F00F3B6
:1056B00014849DF87F20002A3FF436AF10E7DDF810
:1056C000288058F8047B00238DF87F30002F00F0ED
:1056D0009486B9F1530F01F013801AF010030B9365
:1056E00041F00E80039B002BC1F219821A460B99E0
:1056F000384604F06DFC9DF87F300790002801F0DB
:10570000CB85079AD21B089222EAE27202920BB171
:10571000013202920B9BCDF82880039311930C93D6
:1057200007934FF07309D2E60A9B53F8042B0592B6
:10573000002A80F21385059A0A93524205922B782B
:105740004AF0040AF9E52B238DF87F302B78F4E535
:105750002B784AF0800AF0E5294611F8019BB9F14F
:105760002A0F01F04286A9F13003092B98BF0022CD
:1057700001F20C8411F8019B02EB820203EB42025E
:10578000A9F13003092BF5D942EAE27303930D46E0
:10579000D5E5584604F068FB436815931846FFF7B3
:1057A0006FF817900646584604F05EFB82682B7827
:1057B0001692002E3FF4C1AD002A3FF4BEAD127820
:1057C000002A3FF4BAAD4AF4806AB6E52B784AF075
:1057D000010AB2E59DF87F202B78002A7FF4ADAD59
:1057E00020228DF87F20A8E51AF0200F4AF0100043
:1057F00000F0BC840A9B073323F007031A4659685C
:1058000052F8083B0A9200228DF87F20039A002A62
:1058100018DB53EA010220F4906A15D1039A9AB971
:1058200010F001031A46029300F00B8730238DF825
:105830005731039B0892CDE90B33119307930DF277
:10584000571744E620F4806A56AF03F00702DB08DE
:1058500043EA4173C908303253EA0106384607F873
:10586000012DF2D11AF001030B9340F01E8303992E
:10587000119356AAD21B9142B8BF114608920291C9
:105880000C93079323E600BFFFFFEF7F60F8000053
:105890005CF800001AF0200F4AF0100138D10A9B82
:1058A0001A1D0A9B03981B684FF0000840458DF8AD
:1058B0007F801E46C0F27C8521F0800A002B00F01C
:1058C0008B840A920A2E78F1000380F0B28306F1ED
:1058D0003003DBB2039A8DF85731012AB8BF012299
:1058E00002929DF87F30012208920DF25717002B8B
:1058F00001F07585029B013302930023CDE90B3340
:1059000007931193E3E51AF0200F00F04E845146FF
:105910000A9B073323F007031A46D3F8048052F892
:10592000086B0A9200238DF87F30039B002BC0F296
:10593000408556EA080321F0800AC3D1039B002B5F
:1059400000F04F840026C2E72B784AF0080AF4E4FE
:105950001AF0200F4AF0100300F019840A9A073257
:1059600022F007029A46536852F8086B0A9298464A
:10597000002BC0F24D83039A002AA3DB56EA0803EA
:105980002AF0800A9ED1002A01F055803023A1E739
:105990002B78682B03BF6B784AF4007A01354AF004
:1059A000400ACAE40A9A1AF0200F02F1040300F038
:1059B0002184126804991160C91751600A932F4617
:1059C00094E42B786C2B03BF6B784AF0200A0135E6
:1059D0004AF0100AB1E40A9A039F52F8040B00211E
:1059E00047F630038F42ADF880308DF87F100346C4
:1059F000C0F2E2842AF0800646F0020A002840F055
:105A0000DD84002F01F01E800A92302301220297CC
:105A1000CDE907020C908DF857310DF25717119010
:105A20004FF078090B90844600F0A5BC1AF0200FC7
:105A300040F0B8830A9A1AF0100152F8043B41F082
:105A40000F851AF0400000F0EF869BB20A92504694
:105A5000D9E6B9F1650F40F3FA80DDE90E010022C5
:105A6000002308F04DFB002800F09D812B9BB24ADB
:105A70002260013301360122072B2C962B936260A2
:105A800000F332860834219B0D9A934280F26183A1
:105A9000129B139A1E44C4E900232B9B2C960133BE
:105AA000072B2B9300F39D8408340D9B5F1E002F62
:105AB0007FF752AD102F2B9B41F31C849F49DDF8DB
:105AC0001890109132464FF010080E4604E008344A
:105AD000103F102F40F3A68001331032072BC4E98A
